{
  "_format": "hh-sol-artifact-1",
  "contractName": "chai",
  "sourceName": "contracts/Chai.sol",
  "abi": [
    {
      "inputs": [],
      "stateMutability": "nonpayable",
      "type": "constructor"
    },
    {
      "inputs": [
        {
          "internalType": "string",
          "name": "name",
          "type": "string"
        },
        {
          "internalType": "string",
          "name": "message",
          "type": "string"
        }
      ],
      "name": "buyChai",
      "outputs": [],
      "stateMutability": "payable",
      "type": "function"
    },
    {
      "inputs": [],
      "name": "getMemos",
      "outputs": [
        {
          "components": [
            {
              "internalType": "string",
              "name": "name",
              "type": "string"
            },
            {
              "internalType": "string",
              "name": "message",
              "type": "string"
            },
            {
              "internalType": "uint256",
              "name": "timestamp",
              "type": "uint256"
            },
            {
              "internalType": "address",
              "name": "from",
              "type": "address"
            },
            {
              "internalType": "uint256",
              "name": "amount",
              "type": "uint256"
            }
          ],
          "internalType": "struct chai.Memo[]",
          "name": "",
          "type": "tuple[]"
        }
      ],
      "stateMutability": "view",
      "type": "function"
    }
  ],
  "bytecode": "0x608060405234801561001057600080fd5b5033600160006101000a81548173ffffffffffffffffffffffffffffffffffffffff021916908373ffffffffffffffffffffffffffffffffffffffff160217905550610b88806100616000396000f3fe6080604052600436106100295760003560e01c80636a13d8591461002e578063865c51721461004a575b600080fd5b610048600480360381019061004391906104fc565b610075565b005b34801561005657600080fd5b5061005f6102a0565b60405161006c91906107a6565b60405180910390f35b600034116100b8576040517f08c379a00000000000000000000000000000000000000000000000000000000081526004016100af90610825565b60405180910390fd5b600160009054906101000a900473ffffffffffffffffffffffffffffffffffffffff1673ffffffffffffffffffffffffffffffffffffffff166108fc349081150290604051600060405180830381858888f19350505050158015610120573d6000803e3d6000fd5b5060006040518060a0016040528086868080601f016020809104026020016040519081016040528093929190818152602001838380828437600081840152601f19601f82011690508083019250505050505050815260200184848080601f016020809104026020016040519081016040528093929190818152602001838380828437600081840152601f19601f8201169050808301925050505050505081526020014281526020013373ffffffffffffffffffffffffffffffffffffffff16815260200134815250908060018154018082558091505060019003906000526020600020906005020160009091909190915060008201518160000190816102269190610a80565b50602082015181600101908161023c9190610a80565b506040820151816002015560608201518160030160006101000a81548173ffffffffffffffffffffffffffffffffffffffff021916908373ffffffffffffffffffffffffffffffffffffffff16021790555060808201518160040155505050505050565b60606000805480602002602001604051908101604052809291908181526020016000905b8282101561048457838290600052602060002090600502016040518060a00160405290816000820180546102f7906108a3565b80601f0160208091040260200160405190810160405280929190818152602001828054610323906108a3565b80156103705780601f1061034557610100808354040283529160200191610370565b820191906000526020600020905b81548152906001019060200180831161035357829003601f168201915b50505050508152602001600182018054610389906108a3565b80601f01602080910402602001604051908101604052809291908181526020018280546103b5906108a3565b80156104025780601f106103d757610100808354040283529160200191610402565b820191906000526020600020905b8154815290600101906020018083116103e557829003601f168201915b50505050508152602001600282015481526020016003820160009054906101000a900473ffffffffffffffffffffffffffffffffffffffff1673ffffffffffffffffffffffffffffffffffffffff1673ffffffffffffffffffffffffffffffffffffffff168152602001600482015481525050815260200190600101906102c4565b50505050905090565b600080fd5b600080fd5b600080fd5b600080fd5b600080fd5b60008083601f8401126104bc576104bb610497565b5b8235905067ffffffffffffffff8111156104d9576104d861049c565b5b6020830191508360018202830111156104f5576104f46104a1565b5b9250929050565b600080600080604085870312156105165761051561048d565b5b600085013567ffffffffffffffff81111561053457610533610492565b5b610540878288016104a6565b9450945050602085013567ffffffffffffffff81111561056357610562610492565b5b61056f878288016104a6565b925092505092959194509250565b600081519050919050565b600082825260208201905092915050565b6000819050602082019050919050565b600081519050919050565b600082825260208201905092915050565b60005b838110156105e35780820151818401526020810190506105c8565b60008484015250505050565b6000601f19601f8301169050919050565b600061060b826105a9565b61061581856105b4565b93506106258185602086016105c5565b61062e816105ef565b840191505092915050565b6000819050919050565b61064c81610639565b82525050565b600073ffffffffffffffffffffffffffffffffffffffff82169050919050565b600061067d82610652565b9050919050565b61068d81610672565b82525050565b600060a08301600083015184820360008601526106b08282610600565b915050602083015184820360208601526106ca8282610600565b91505060408301516106df6040860182610643565b5060608301516106f26060860182610684565b5060808301516107056080860182610643565b508091505092915050565b600061071c8383610693565b905092915050565b6000602082019050919050565b600061073c8261057d565b6107468185610588565b93508360208202850161075885610599565b8060005b8581101561079457848403895281516107758582610710565b945061078083610724565b925060208a0199505060018101905061075c565b50829750879550505050505092915050565b600060208201905081810360008301526107c08184610731565b905092915050565b600082825260208201905092915050565b7f506c6561736520706179206d6f7265207468616e203000000000000000000000600082015250565b600061080f6016836107c8565b915061081a826107d9565b602082019050919050565b6000602082019050818103600083015261083e81610802565b9050919050565b7f4e487b7100000000000000000000000000000000000000000000000000000000600052604160045260246000fd5b7f4e487b7100000000000000000000000000000000000000000000000000000000600052602260045260246000fd5b600060028204905060018216806108bb57607f821691505b6020821081036108ce576108cd610874565b5b50919050565b60008190508160005260206000209050919050565b60006020601f8301049050919050565b600082821b905092915050565b6000600883026109367fffffffffffffffffffffffffffffffffffffffffffffffffffffffffffffffff826108f9565b61094086836108f9565b95508019841693508086168417925050509392505050565b6000819050919050565b600061097d61097861097384610639565b610958565b610639565b9050919050565b6000819050919050565b61099783610962565b6109ab6109a382610984565b848454610906565b825550505050565b600090565b6109c06109b3565b6109cb81848461098e565b505050565b5b818110156109ef576109e46000826109b8565b6001810190506109d1565b5050565b601f821115610a3457610a05816108d4565b610a0e846108e9565b81016020851015610a1d578190505b610a31610a29856108e9565b8301826109d0565b50505b505050565b600082821c905092915050565b6000610a5760001984600802610a39565b1980831691505092915050565b6000610a708383610a46565b9150826002028217905092915050565b610a89826105a9565b67ffffffffffffffff811115610aa257610aa1610845565b5b610aac82546108a3565b610ab78282856109f3565b600060209050601f831160018114610aea5760008415610ad8578287015190505b610ae28582610a64565b865550610b4a565b601f198416610af8866108d4565b60005b82811015610b2057848901518255600182019150602085019450602081019050610afb565b86831015610b3d5784890151610b39601f891682610a46565b8355505b6001600288020188555050505b50505050505056fea2646970667358221220f90fccee4debc58a2718b4e6c92c819e24bb9cc52dac2cf4e69f0aa2e8f059c664736f6c63430008130033",
  "linkReferences": {},
  "deployedLinkReferences": {}
}